:020000040800F2
:10000000B0040020010100080B150008B31300081C
:1000100009150008DF020008E318000800000000CE
:100020000000000000000000000000001F16000893
:10003000E1020008000000000D150008211600086C
:100040001B0100081B0100081B0100081B01000820
:100050001B0100081B0100081B0100081B01000810
:100060001B0100081B0100081B0100081B01000800
:100070001B0100081B0100081B0100081B010008F0
:100080001B0100081B0100081B0100081B010008E0
:100090001B0100081B0100081B0100081B010008D0
:1000A0001B0100081B0100081B0100081B010008C0
:1000B000BD1600081B0100081B0100081B010008F9
:1000C0001B0100081B0100081B0100081B010008A0
:1000D0001B0100081B0100081B0100081B01000890
:1000E0001B0100081B0100081B010008DFF80CD0F1
:1000F00000F0D4F80048004725190008B00400209B
:100100000648804706480047FEE7FEE7FEE7FEE7B1
:10011000FEE7FEE7FEE7FEE7FEE7FEE775160008EE
:10012000ED000008202A04DB203A21FA02F0002129
:10013000704721FA02F3D040C2F1200291400843F7
:1001400019467047D2B201E000F8012B491EFBD2DC
:1001500070470022F6E710B513460A4604461946D2
:10016000FFF7F0FF204610BD70B521F000430343B8
:100170000CD0C1F30A550024D5EB040564EB04034D
:10018000D617AD1AB34102DB0020014670BD20181E
:1001900041EB025170BD0EB540F233410291002196
:1001A000CDE900110A460B4600F02AF803B000BD65
:1001B000C1F30A5210B5C1F3130140F2FF3341F409
:1001C00080119A4201DA002010BD40F233439A4276
:1001D000A2F2334203DC5242FFF7A4FF10BD90406D
:1001E00010BD10B5141E73F1000408DA401C41F173
:1001F000000192185B411A4301D120F0010010BDAB
:100200002DE9F04D92469B4611B1B1FA81F202E020
:10021000B0FA80F22032904600F052F804460F46C1
:1002200040EA0A0041EA0B0153465A46084313D0FC
:10023000114653EA010019D0C8F140025046FFF7B9
:1002400071FF05460E4650465946424600F038F8C2
:10025000084305D0012004E020463946BDE8F08D72
:100260000020054346EAE0762C4337430A986305AD
:10027000E40AA0EB08000022FD0A44EA47540A30D1
:1002800002D500200146E9E7010510196941DDE9C1
:10029000084500196941BDE8F04DA2E7064C074D3D
:1002A00006E0E06840F0010394E807009847103446
:1002B000AC42F6D3FFF71EFFD0190008F019000872
:1002C000202A04DB203A00FA02F100207047914016
:1002D000C2F1200320FA03F3194390407047FEE770
:1002E0007047000070B5044600F00AF90546601C2E
:1002F00002D004480078044400F002F9401BA042F8
:10030000FAD370BD080000202DE9F84FDFF8B8914E
:10031000002409F1040A0AF1040B23460F270BF10C
:10032000040EC9E00125A5402A40AA427DD1674EAE
:10033000D1F804C0ACEB0608B44532D014DCBCF1F3
:10034000030F3AD009DCBCF1000F2AD0BCF1010F39
:100350001CD0BCF1020F31D11DE0BCF1110F17D040
:10036000BCF1120F2AD119E0B8F5881F19D006DCAC
:10037000B8F5803F15D0B8F5801F1FD111E0B8F552
:10038000001F0ED0B8F5041F18D10AE0CB6815E0A5
:10039000CB681B1D12E0CB6808330FE0CB680C3331
:1003A0000CE08B682BB1012B4FF0080303D04561A3
:1003B00004E0042302E0056100E00023FF2A01D8E5
:1003C000064601E000F104064FEA840501D9A5F1D3
:1003D0002005D6F8008007FA05FC28EA0C0803FA85
:1003E00005F548EA0508C6F800804D68ED0062D5BD
:1003F000374DAE6946F00106AE61AD6924F00306E3
:1004000005F001050095334D06EB050CDCF80850AE
:10041000A607360F07FA06F825EA0805DFF8B880C0
:10042000404503D14FF0000817E044E0DFF8AC800E
:10043000404502D14FF001080FE0DFF8A4804045AD
:1004400002D14FF0020808E0DFF89880404502D161
:100450004FF0030801E04FF0040808FA06F848EAF4
:100460000508CCF808804D68D9F80060ED034D46CA
:1004700001D5164300E096432E604D68DAF800601F
:10048000AD03554601D5164300E096432E604D68F6
:10049000DBF80060ED025D4601D5164300E09643AF
:1004A0002E604D68DEF80060AD02754601D516433A
:1004B00000E096432E60641C0D682A46E5407FF4F8
:1004C00031AFBDE8F88F00000004014000001110BA
:1004D000001002400000014000080140000C0140F3
:1004E0000010014000140140C2680A4201D041617D
:1004F0007047016170470AB1016170470904FBE769
:1005000001488068704700000800002002488168A8
:10051000027811448160704708000020074810B538
:10052000016841F010010160032000F075F800201F
:1005300000F006F800F024F8002010BD0020024072
:1005400070B50D4D04464FF47A712878B1FBF0F088
:100550000A490968B1FBF0F000F0DBFC48B9102C47
:1005600007D200222146501E00F036F800206C60B1
:1005700070BD012070BD00000800002014000020A4
:100580000C4808B5816941F001018161816901F080
:1005900001010091C16941F08051C161C06900F061
:1005A000805000900448416821F0E06141F0007102
:1005B000416008BD0010024000000140002809DB36
:1005C00000F01F02012191404009800000F1E0206D
:1005D000C0F8001170470000F0B40E4B1B680C46C9
:1005E000C3F30223C3F10705042D00D90425191D07
:1005F000072901D2002300E0DB1E012606FA05F1DF
:10060000491E214099409E40761E16403143F0BC61
:1006100001F068B90CED00E0064900F00702086837
:100620004FF6FF03184040EA0220034A10430860D7
:10063000704700000CED00E00000FA052DE9F047DE
:100640000F46050061D0434E306800F00700B84205
:1006500009D2306820F0070038433060306800F07D
:100660000700B84251D128683B4C810712D540079A
:1006700003D5606840F4E06060602878000703D527
:10068000606840F4605060606068A96820F0F00025
:10069000084360602878C00728D06868012810D017
:1006A0002168022810D0890700292EDA616821F01C
:1006B000030101436160FFF723FF804641F288395F
:1006C0000DE021688903EFE78901EDE7FFF718FFE7
:1006D000A0EB0801494502D90320BDE8F087606816
:1006E000696800F00C00B0EB810FEFD1306800F0CA
:1006F0000700B8420BD9306820F00700384330605B
:10070000306800F00700B84201D00120E5E7287802
:10071000400705D56068E96820F4E0600843606040
:100720002878000706D56068296920F4605040EAFF
:10073000C100606000F018F86168084AC1F3031155
:10074000515CC8400649086006480068FFF7F8FE9B
:100750000020C2E70020024000100240C01900083B
:10076000140000200C00002012A185B00FC98DE8F4
:100770000F0014A0144A006804905168134801F057
:100780000C03042B10D0082B0ED1C1F38343C903F3
:100790001DF803000AD5516804AAC1F34041515C19
:1007A0000A4A5043B0FBF1F005B07047084948438E
:1007B000FAE7000002030405060708090A0B0C0DFE
:1007C0000E0F1010010200000010024000127A000B
:1007D00000093D002DE9F84F040070D02078C04D8D
:1007E000C00749D06868C0F38100012807D0686855
:1007F000C0F38100022809D16868C00306D52868C3
:10080000800339D560680028E7D035E06068B0F52E
:10081000803F0BD010B1B0F5A02F11D0286820F484
:1008200080302860286820F4802002E0286840F4A6
:1008300080302860606890B1FFF762FE06460AE0EB
:10084000286840F480202860F0E700BFFFF758FEDA
:10085000801B642873D828688003F7D50CE0FFF765
:100860004FFE064605E000BFFFF74AFE801B6428E6
:10087000F0D828688003F7D420789A4E80074FF08C
:1008800001094FF0000839D5686810F00C0F07D047
:100890006868C0F38100022809D16868C00306D4E3
:1008A0002868800714D52069012808D110E0206944
:1008B000B0B1C6F80090FFF723FE074605E00AE155
:1008C000FFF71EFEC01B0228C4D828688007F7D592
:1008D0002868616920F0F80040EAC10028600DE056
:1008E000C6F80080FFF70CFE074604E0FFF708FE9D
:1008F000C01B022823D828688007F7D42078000777
:100900002CD57948A169D9B1C0F80090FFF7F8FD5E
:10091000074604E0FFF7F4FDC01B02280FD8686A01
:100920008007F7D571484FF4FA510068B0FBF1F039
:10093000009000BF0098411E0091FAD20EE080E0C6
:10094000C0F80080FFF7DCFD074604E0FFF7D8FDA4
:10095000C01B022875D8686A8007F7D42078400742
:1009600060D5E8690027C00008D4E86940F08050ED
:10097000E861E869012700F0805000905C48016858
:10098000C90513D40168834641F480710160FFF703
:10099000B7FD824606E000BFFFF7B2FDA0EB0A00FC
:1009A00064284ED8DBF80000C005F5D5E0680128C2
:1009B0000AD008B1052813D0286A20F00100286267
:1009C000286A20F0040002E0286A40F00100286252
:1009D000E06841F2883B98B1FFF792FD82460BE058
:1009E000286A40F004002862EEE700BFFFF788FDA8
:1009F000A0EB0A0159455AD8286A8007F6D50CE0C1
:100A0000FFF77EFD824605E0FFF77AFDA0EB0A01C5
:100A100059454CD8286A8007F6D41FB1E86920F000
:100A20008050E861E06988B36968C1F381010229F7
:100A300044D00228C6F8608004D0FFF761FD044668
:100A400038E034E0FFF75CFD074604E0FFF758FDAF
:100A5000C01B02282BD828688001F7D4206AB0F583
:100A6000803F05D16868A16820F4003008436860C1
:100A7000D4E908010843696821F4741108436860E7
:100A8000C6F86090FFF73CFD044606E025E000BF95
:100A9000FFF736FD001B022809D828688001F7D52A
:100AA0001BE000BFFFF72CFD001B022802D903202A
:100AB000BDE8F88F28688001F4D40EE00128F7D053
:100AC0006868226A00F48031914204D1616A00F4BE
:100AD0007010884201D00120EAE70020E8E700001A
:100AE00000100240000042428004424214000020F4
:100AF0000070004070B5040005D00025A56294F890
:100B0000510010B106E0012070BD84F8505020461D
:100B100000F02EF8022084F851002068016821F0CE
:100B200040010160D4E901010843D4E903121143F3
:100B3000084361690843218B01F400710843E169AE
:100B40000843216A0843A16A084321680860A06934
:100B5000042101EA1040216848602068C16921F43D
:100B60000061C1616565012084F85100002070BDFD
:100B700030B585B000240094019402940394006879
:100B80001449884223D11448816941F4805181611C
:100B9000816901F480510491816941F0040181610E
:100BA00080690E4D00F00400049020200090022087
:100BB00001900320039069462846FFF7A5FB4020DB
:100BC000CDE90004694628460294FFF79DFB05B075
:100BD00030BD00000030014000100240000801401C
:100BE0002DE9F84F044640680025984616460F4602
:100BF0004FF0040BB0F5827F01D1A06888B194F862
:100C00005000012818D0012084F85000FFF778FC2C
:100C1000814694F851004FF0000A01280ED00225B9
:100C20007DE084F851B013460A462046CDF8008096
:100C300000F07EF8BDE8F88F0220FBE7002F6DD0B2
:100C4000002E6BD084F851B0C4F854A0A763A687D7
:100C5000E687C4F830A0A4F834A0A4F836A0C4F8FD
:100C600040A0C4F844A0A068B0F5004F04D12068AB
:100C7000016821F48041016020680168490603D4BD
:100C8000016841F040010160E068D8B139E02068B6
:100C90008168C90709D0007BA16B0870A06B401C5C
:100CA000A063E08F401EE0870CE0FFF729FCA0EB7B
:100CB0000901414503D3B8F1FF3F03D036E0B8F155
:100CC000000F33D0E08F0028E1D11DE0206881685B
:100CD000C90709D0C068A16B0880A06B801CA06305
:100CE000E08F401EE0870CE0FFF70AFCA0EB090153
:100CF000414503D3B8F1FF3F03D017E0B8F1000F2F
:100D000014D0E08F0028E1D14A464146204600F049
:100D1000FEFB08B120206065606D00B10125012057
:100D200084F8510084F850A0284683E70325F6E7AD
:100D30002DE9F84F044690F8500000270A9E1D4602
:100D400092468B464FF0010901280ED0012084F80D
:100D50005000FFF7D5FB804694F8510061680128E8
:100D60000CD0B1F5827F07D102E00220BDE8F88FF8
:100D7000A16809B9042801D00227C2E0BBF1000F25
:100D800027D0BAF1000F24D01DB394F851000428E5
:100D900002D0052084F8510000206065C4F838A016
:100DA000E587A587C4F830B0E586A5862064606431
:100DB00020680168490603D4016841F040010160E0
:100DC000E068B0F5006F606805D0E8B3012D46D04B
:100DD0007FE0012795E008B1012D39D1206B216812
:100DE0000088C860206B801C2063E08E401EE08677
:100DF0002EE02068816889070FD5E18E69B1B9F1CD
:100E0000010F0AD1216B0988C160206B801C20630F
:100E1000E08E401EE0864FF0000920688168C90717
:100E20000CD0E18F51B1C068A16B0880A06B801C11
:100E3000A063E08F401EE0874FF00109FFF760FBE1
:100E4000A0EB0800B04200E009E001D3701C50D1D3
:100E5000E08E0028CDD1E08F0028CAD13FE0206B82
:100E6000216800780873206B401C2063E08E401ED0
:100E7000E0862EE02068816889070FD5E18E69B190
:100E8000B9F1010F0AD1216B09780173206B401C65
:100E90002063E08E401EE0864FF0000920688168E4
:100EA000C9070CD0E18F51B1C068A16B0870A06B6D
:100EB000401CA063E08F401EE0874FF00109FFF760
:100EC0001FFBA0EB0800B04202D3701C01D010E061
:100ED0007EB1E08E0028CDD1E08F0028CAD14246F5
:100EE0003146204600F041FB28B1012720206065F3
:100EF00007E0032705E0A06818B92068C16880688A
:100F00000090012084F85100002084F850003846F9
:100F10002CE710B5401EB0F1807F01D3012010BD39
:100F20004FF0E02460610F21601700F0DBFC00202F
:100F3000A06107202061002010BD7047704770B588
:100F400090F83C20012A19D0012400F83C4F0222DD
:100F5000427050F83C3C5A689D6822F070060A685E
:100F60004968324325F0800529435A6050F83C2CEB
:100F70009160447000210170084670BD022070BD70
:100F800010B5040003D094F83D0010B107E0012033
:100F900010BD002084F83C00204600F00DF802202F
:100FA00084F83D00211D206800F08EFB012084F8AC
:100FB0003D00002010BD000008B50068B0F1804F72
:100FC00012D10A48C16941F00101C161C069002222
:100FD00000F00100009011461C20FFF7FDFABDE86B
:100FE00008401C20FFF7EABA08BD000000100240CC
:100FF0000168CA6842F00102CA600068816801F0B5
:101000000701062903D0016841F0010101600020B9
:10101000704770B5044690F83C00012817D00125B0
:1010200084F83C50022084F83D002068826822F059
:10103000770222F47F4282600868502830D00DDCAD
:1010400020284DD005DC98B310283BD148E0022081
:1010500070BD302844D0402834D139E0602828D0F1
:10106000702806D0B0F5805F2CD0B0F5005F29D194
:101070000AE0CB68D1E90121206800F05BFB206821
:10108000816841F0770109E0CB68D1E9012120684E
:1010900000F050FB2068816841F48041816011E0DC
:1010A000CA684968206800F0F9FB5021206807E011
:1010B00016E0CA684968206800F001FC60212068D9
:1010C00000F042FB84F83D50002084F83C0070BDE5
:1010D000CA684968206800F0E1FB40212068EFE71A
:1010E000226801461046EBE7704770B50446006879
:1010F00001694FF00005C943890715D4C168C94388
:10110000890711D4E91E01610120207720688069D8
:101110008007204602D0FFF7E7FF04E000F0BCF8AC
:10112000204600F03EF9257720680169C943490748
:1011300017D4C168C943490713D46FF00401016192
:10114000022020772068806910F4407F204602D07A
:10115000FFF7CAFF04E000F09FF8204600F021F9F5
:10116000257720680169C943090716D4C168C943B6
:10117000090712D46FF0080101610420207720686C
:10118000C0698007204602D0FFF7AEFF04E000F000
:1011900083F8204600F005F9257720680169C943E6
:1011A000C90617D4C168C943C90613D46FF010012A
:1011B0000161082020772068C06910F4407F204634
:1011C00002D0FFF791FF04E000F066F8204600F03F
:1011D000E8F8257720680169C943C90708D1C168C3
:1011E000C943C90704D1891E0161204600F0DAF81D
:1011F00020680169C943090609D4C168C9430906C1
:1012000005D46FF0800101612046FFF796FE20684B
:101210000169C943490609D4C168C943490605D4CF
:101220006FF040010161204600F0C2F820680169BA
:10123000C94389060BD4C168C943890607D46FF036
:10124000200101612046BDE87040FFF777BE70BD08
:1012500000B585B0002100910191029103910068D1
:10126000B0F1804F11D10A48816941F004018161D8
:101270008069694600F0040004900120009002207B
:10128000019003900348FFF73FF805B000BD000050
:101290000010024000080140704770B5044690F805
:1012A0003C000D4601280DD0012684F83C60022048
:1012B00084F83D0042B1042A18D0082A2AD00C2A0A
:1012C0004DD139E0022070BD206800F045FA206859
:1012D000816941F0080181612068816921F0040180
:1012E0008161206881692A69114311E0206800F05A
:1012F0005BFA2068816941F400618161206881693D
:1013000021F480618161206881692A6941EA0221B2
:10131000816124E0206800F073FA2068C16941F01F
:101320000801C1612068C16921F00401C161206820
:10133000C1692A69114311E0206800F08DFA206824
:10134000C16941F40061C1612068C16921F4806113
:10135000C1612068C1692A6941EA0221C16184F83A
:101360003D60002084F83C0070BD10B5040003D03F
:1013700094F83D0010B107E0012010BD002084F872
:101380003C00204600F00CF8022084F83D00211DAE
:10139000206800F099F9012084F83D00002010BD7C
:1013A0007047704701490120087070470000002015
:1013B0007047FEE72DE9F04186B0002420480094F4
:1013C000019402940394816941F010018161816963
:1013D00001F010010491816941F02001816181696E
:1013E00001F020010491816941F00401816180696B
:1013F000144F00F004004FF40055049000222946D9
:101400003846FFF778F8DFF8408000228021404618
:10141000FFF771F80095022601250396CDE90154E6
:1014200069463846FEF770FF8020CDE90005CDE91A
:10143000024669464046FEF767FF06B0BDE8F08108
:101440000010024000100140000801400D480C4906
:101450004FF4007201604FF4827141604FF480617B
:1014600081600021C1600161C0E905123022C0E93C
:101470000721416281620A21C162FFF73BBB000084
:10148000003001401800002010B58EB000240794F1
:10149000089409940A940B941C2168460C94FEF756
:1014A00058FE18484FF08041016041F61F41C0E9E5
:1014B000011442F20F71C0E903148461FFF760FD6B
:1014C0004FF48050079007A90E48FFF7A2FD0D4882
:1014D000FFF74BFF0B940BA90A480C94FFF72FFD65
:1014E0006020009041F28730CDE901040022694676
:1014F00004480494FFF7D1FE0248FFF7A9FE0EB09E
:1015000010BD000070000020FEE770477047F8B57E
:10151000044640684FF48273984217D1A0684FF494
:101520008065B0F5004F01D0A8420FD12068066851
:1015300026F0400606606068984207D1A068A8427D
:1015400004D100920B460022012103E000920B46D9
:1015500000228021204600F018F8002804D0606D99
:1015600040F0200060650320F8BD38B50B460092BE
:1015700004460022802100F008F8002804D0606DA5
:1015800040F020006065032038BD2DE9F0411D4684
:1015900017460E460446DDF8188008E0681C06D0A1
:1015A000FEF7AEFFA0EB0800A8420BD255B12068B1
:1015B000806836EA000030D00020B842EED100202A
:1015C000BDE8F0812068416821F0E0014160606879
:1015D000B0F5827F0BD1A068B0F5004F02D0B0F516
:1015E000806F04D12068016821F040010160A06A89
:1015F000B0F5005F09D12068016821F40051016055
:101600002068016841F400510160012084F8510014
:10161000002084F850000320D2E70120CDE7704776
:10162000FEF774BF10B590B028216846FEF791FD13
:1016300014210AA8FEF78DFD01210804CDE9001050
:101640004200029202240491CDE907404FF4501069
:1016500009906846FFF7BEF80F20CDE90A04002084
:101660006102CDE90C010E9002210AA8FEF7E6FF07
:1016700010B010BD0D48016841F0010101604168E2
:101680000B4A1140416001680A4A1140016001683B
:1016900021F480210160416821F4FE0141604FF492
:1016A0001F0181600449C0030860704700100240B8
:1016B0000000FFF8FFFFF6FE08ED00E00148FFF72D
:1016C00014BD000070000020F0B50268164B174CE6
:1016D000174D4FF08047984205D0B84203D0A04242
:1016E00001D0A84203D122F070064A6832439842E2
:1016F00005D0B84203D0A04201D0A84203D122F4C1
:101700004074CA6822434C6922F08002224302607E
:101710008A68C2620A688262984201D109690163DB
:1017200001214161F0BD0000002C01400004004097
:101730000008004010B5846842EA032224F47F4484
:101740000A432243826010BD826822F070020A437D
:1017500042F007018160704730B5026A22F0010251
:101760000262026A4368846924F073050C682C43A2
:1017700022F002058A682A430A4DA8420BD122F0C2
:101780000805CA6823F440732A434D6922F0040215
:101790001D438B692B434360846149684163026246
:1017A00030BD0000002C014030B5026A22F010026A
:1017B0000262026A436884690D6824F4E64444EADC
:1017C00005248D6822F0200242EA05120B4DA84242
:1017D0000ED1CD6822F0800242EA05124D6923F451
:1017E000406343EA85038D6922F0400243EA8503A2
:1017F0004360846149688163026230BD002C01400E
:1018000030B5026A22F480720262036A4268C469D7
:1018100023F4007324F073050C682C438D6843EAAD
:1018200005230C4DA8420ED1CD6823F4006343EA92
:1018300005234D6922F4405242EA05128D6923F4D2
:10184000806342EA05124260C4614968C163036271
:1018500030BD0000002C014030B5026A22F48052F5
:101860000262046A4268C3690D6823F4E64343EAEE
:1018700005238D6824F4005444EA0534064DA8423B
:1018800004D14D6922F4804242EA85124260C3616C
:1018900049680164046230BD002C014010B5036A40
:1018A000046A24F001040462846924F0F00444EA28
:1018B000021423F00A020A438461026210BD10B5CB
:1018C000036A23F0100303628369046A23F47043FC
:1018D00043EA023224F0A00343EA0111826101626B
:1018E00010BDFEE70907090E002804DB00F1E02027
:1018F00080F80014704700F00F0000F1E02080F83D
:10190000141D704702E008C8121F08C1002AFAD14E
:1019100070477047002001E001C1121F002AFBD16F
:1019200070470000FEF7FAFDFFF77CFEFFF742FD6F
:10193000FFF7AAFDFFF78AFD1D4D012280212846F1
:10194000FEF7D9FD1B48FFF753FB1B4C20780128FD
:10195000FCD1002280212846FEF7CDFD0120FEF7B4
:10196000C1FC1549134801230222891D5838FFF78D
:1019700037F920B14FF400511048FEF7B5FD0122B0
:1019800080212846FEF7B7FD0B48801D017840787E
:1019900040EA0120C0086080FEF7FDFB6FF0010205
:1019A000FEF7E2FBFEF704FCA08000202070CDE7EC
:1019B00000080140700000200000002000100140DD
:1019C00000000000000000000102030406070809EF
:1019D000F019000800000020180000000419000899
:1019E000081A0008180000209804000014190008C4
:1019F00000000000000000000100000010000000D6
:081A0000000000000024F400C6
:04000005080000ED02
:00000001FF
